{
  "contractName": "DappToken",
  "abi": [
    {
      "inputs": [],
      "payable": false,
      "stateMutability": "nonpayable",
      "type": "constructor"
    },
    {
      "constant": true,
      "inputs": [],
      "name": "totalSupply",
      "outputs": [
        {
          "internalType": "uint256",
          "name": "",
          "type": "uint256"
        }
      ],
      "payable": false,
      "stateMutability": "view",
      "type": "function"
    }
  ],
  "bytecode": "0x6080604052348015600f57600080fd5b50620f42406000819055506084806100286000396000f3fe6080604052348015600f57600080fd5b506004361060285760003560e01c806318160ddd14602d575b600080fd5b60336049565b6040518082815260200191505060405180910390f35b6000548156fea265627a7a723158207215f5d25f97e9a9bd62933d3de63ac7ef518639b2ce717a61ef48175793dbc764736f6c63430005100032",
  "source": "pragma solidity ^0.5.16;\n\n/**\n * The DappToken contract does this and that...\n */\ncontract DappToken {\n\n\tuint public totalSupply;\n\t// Constructor\n  \tconstructor() public {\n    \ttotalSupply = 1000000;\n  \t}\n\n}\n",
  "sourcePath": "/home/minh/Desktop/Blockchain-MyOwnToken/contracts/DappToken.sol",
  "compiler": {
    "name": "solc",
    "version": "0.5.16+commit.9c3226ce.Emscripten.clang"
  },
  "schemaVersion": "3.0.21",
  "updatedAt": "2020-02-10T03:14:00.153Z",
  "networkType": "ethereum",
  "devdoc": {
    "methods": {}
  },
  "userdoc": {
    "methods": {},
    "notice": "The DappToken contract does this and that..."
  }
}