{
  "contractName": "DappToken",
  "abi": [
    {
      "inputs": [
        {
          "internalType": "uint256",
          "name": "_initialSupply",
          "type": "uint256"
        }
      ],
      "payable": false,
      "stateMutability": "nonpayable",
      "type": "constructor"
    },
    {
      "constant": true,
      "inputs": [
        {
          "internalType": "address",
          "name": "",
          "type": "address"
        }
      ],
      "name": "balanceOf",
      "outputs": [
        {
          "internalType": "uint256",
          "name": "",
          "type": "uint256"
        }
      ],
      "payable": false,
      "stateMutability": "view",
      "type": "function"
    },
    {
      "constant": true,
      "inputs": [],
      "name": "totalSupply",
      "outputs": [
        {
          "internalType": "uint256",
          "name": "",
          "type": "uint256"
        }
      ],
      "payable": false,
      "stateMutability": "view",
      "type": "function"
    }
  ],
  "bytecode": "0x608060405234801561001057600080fd5b506040516101993803806101998339818101604052602081101561003357600080fd5b810190808051906020019092919050505080600160003373ffffffffffffffffffffffffffffffffffffffff1673ffffffffffffffffffffffffffffffffffffffff16815260200190815260200160002081905550806000819055505060fb8061009e6000396000f3fe6080604052348015600f57600080fd5b506004361060325760003560e01c806318160ddd14603757806370a08231146053575b600080fd5b603d60a8565b6040518082815260200191505060405180910390f35b609260048036036020811015606757600080fd5b81019080803573ffffffffffffffffffffffffffffffffffffffff16906020019092919050505060ae565b6040518082815260200191505060405180910390f35b60005481565b6001602052806000526040600020600091509050548156fea265627a7a7231582027809eb6ebaa6ec5c48dee8634a312ebe766d2c8e4a293bf5ad91d2f0c78df3d64736f6c63430005100032",
  "source": "pragma solidity ^0.5.16;\n\n/**\n * The DappToken contract does this and that...\n */\ncontract DappToken {\n\n\tuint256 public totalSupply;\n\n\tmapping (address => uint256) public balanceOf;\n\t\n\n\t// Constructor\n  \tconstructor(uint256 _initialSupply) public {\n\n  \t\tbalanceOf[msg.sender] = _initialSupply;\n    \ttotalSupply = _initialSupply;\n  \t}\n\n}\n",
  "sourcePath": "/home/minh/Desktop/Blockchain-MyOwnToken/contracts/DappToken.sol",
  "compiler": {
    "name": "solc",
    "version": "0.5.16+commit.9c3226ce.Emscripten.clang"
  },
  "schemaVersion": "3.0.21",
  "updatedAt": "2020-02-10T04:22:52.848Z",
  "networkType": "ethereum",
  "devdoc": {
    "methods": {}
  },
  "userdoc": {
    "methods": {},
    "notice": "The DappToken contract does this and that..."
  }
}