{
  "contractName": "DappTokenSale",
  "abi": [
    {
      "inputs": [
        {
          "internalType": "contract DappToken",
          "name": "_tokenContract",
          "type": "address"
        },
        {
          "internalType": "uint256",
          "name": "_tokenPrice",
          "type": "uint256"
        }
      ],
      "payable": false,
      "stateMutability": "nonpayable",
      "type": "constructor"
    },
    {
      "anonymous": false,
      "inputs": [
        {
          "indexed": false,
          "internalType": "address",
          "name": "_buyer",
          "type": "address"
        },
        {
          "indexed": false,
          "internalType": "uint256",
          "name": "_amount",
          "type": "uint256"
        }
      ],
      "name": "Sell",
      "type": "event"
    },
    {
      "constant": true,
      "inputs": [],
      "name": "isEnd",
      "outputs": [
        {
          "internalType": "bool",
          "name": "",
          "type": "bool"
        }
      ],
      "payable": false,
      "stateMutability": "view",
      "type": "function"
    },
    {
      "constant": true,
      "inputs": [],
      "name": "tokenContract",
      "outputs": [
        {
          "internalType": "contract DappToken",
          "name": "",
          "type": "address"
        }
      ],
      "payable": false,
      "stateMutability": "view",
      "type": "function"
    },
    {
      "constant": true,
      "inputs": [],
      "name": "tokenPrice",
      "outputs": [
        {
          "internalType": "uint256",
          "name": "",
          "type": "uint256"
        }
      ],
      "payable": false,
      "stateMutability": "view",
      "type": "function"
    },
    {
      "constant": true,
      "inputs": [],
      "name": "tokensAvailable",
      "outputs": [
        {
          "internalType": "uint256",
          "name": "",
          "type": "uint256"
        }
      ],
      "payable": false,
      "stateMutability": "view",
      "type": "function"
    },
    {
      "constant": true,
      "inputs": [],
      "name": "tokensSold",
      "outputs": [
        {
          "internalType": "uint256",
          "name": "",
          "type": "uint256"
        }
      ],
      "payable": false,
      "stateMutability": "view",
      "type": "function"
    },
    {
      "constant": false,
      "inputs": [
        {
          "internalType": "uint256",
          "name": "_numberOfTokens",
          "type": "uint256"
        }
      ],
      "name": "buyTokens",
      "outputs": [],
      "payable": true,
      "stateMutability": "payable",
      "type": "function"
    },
    {
      "constant": true,
      "inputs": [
        {
          "internalType": "address",
          "name": "account",
          "type": "address"
        }
      ],
      "name": "isAdmin",
      "outputs": [
        {
          "internalType": "bool",
          "name": "res",
          "type": "bool"
        }
      ],
      "payable": false,
      "stateMutability": "view",
      "type": "function"
    },
    {
      "constant": false,
      "inputs": [],
      "name": "endSale",
      "outputs": [],
      "payable": false,
      "stateMutability": "nonpayable",
      "type": "function"
    }
  ],
  "bytecode": "0x608060405234801561001057600080fd5b5060405161096c38038061096c8339818101604052604081101561003357600080fd5b810190808051906020019092919080519060200190929190505050336000806101000a81548173ffffffffffffffffffffffffffffffffffffffff021916908373ffffffffffffffffffffffffffffffffffffffff16021790555081600160006101000a81548173ffffffffffffffffffffffffffffffffffffffff021916908373ffffffffffffffffffffffffffffffffffffffff160217905550806002819055505050610885806100e76000396000f3fe60806040526004361061007b5760003560e01c8063518ab2a81161004e578063518ab2a81461015d57806355a373d61461018857806360659a92146101df5780637ff9b5961461020a5761007b565b806324d7806c146100805780632fc6e8b7146100e95780633610724e14610118578063380d831b14610146575b600080fd5b34801561008c57600080fd5b506100cf600480360360208110156100a357600080fd5b81019080803573ffffffffffffffffffffffffffffffffffffffff169060200190929190505050610235565b604051808215151515815260200191505060405180910390f35b3480156100f557600080fd5b506100fe61028e565b604051808215151515815260200191505060405180910390f35b6101446004803603602081101561012e57600080fd5b81019080803590602001909291905050506102a1565b005b34801561015257600080fd5b5061015b610509565b005b34801561016957600080fd5b50610172610783565b6040518082815260200191505060405180910390f35b34801561019457600080fd5b5061019d610789565b604051808273ffffffffffffffffffffffffffffffffffffffff1673ffffffffffffffffffffffffffffffffffffffff16815260200191505060405180910390f35b3480156101eb57600080fd5b506101f46107af565b6040518082815260200191505060405180910390f35b34801561021657600080fd5b5061021f6107b5565b6040518082815260200191505060405180910390f35b60008173ffffffffffffffffffffffffffffffffffffffff166000809054906101000a900473ffffffffffffffffffffffffffffffffffffffff1673ffffffffffffffffffffffffffffffffffffffff16149050919050565b600560009054906101000a900460ff1681565b6102ad816002546107bb565b34146102b857600080fd5b80600160009054906101000a900473ffffffffffffffffffffffffffffffffffffffff1673ffffffffffffffffffffffffffffffffffffffff166370a08231306040518263ffffffff1660e01b8152600401808273ffffffffffffffffffffffffffffffffffffffff1673ffffffffffffffffffffffffffffffffffffffff16815260200191505060206040518083038186803b15801561035857600080fd5b505afa15801561036c573d6000803e3d6000fd5b505050506040513d602081101561038257600080fd5b8101908080519060200190929190505050101561039e57600080fd5b600160009054906101000a900473ffffffffffffffffffffffffffffffffffffffff1673ffffffffffffffffffffffffffffffffffffffff1663a9059cbb33836040518363ffffffff1660e01b8152600401808373ffffffffffffffffffffffffffffffffffffffff1673ffffffffffffffffffffffffffffffffffffffff16815260200182815260200192505050602060405180830381600087803b15801561044757600080fd5b505af115801561045b573d6000803e3d6000fd5b505050506040513d602081101561047157600080fd5b810190808051906020019092919050505061048b57600080fd5b806003600082825401925050819055507f5e5e995ce3133561afceaa51a9a154d5db228cd7525d34df5185582c18d3df093382604051808373ffffffffffffffffffffffffffffffffffffffff1673ffffffffffffffffffffffffffffffffffffffff1681526020018281526020019250505060405180910390a150565b6000809054906101000a900473ffffffffffffffffffffffffffffffffffffffff1673ffffffffffffffffffffffffffffffffffffffff163373ffffffffffffffffffffffffffffffffffffffff161461056257600080fd5b600160009054906101000a900473ffffffffffffffffffffffffffffffffffffffff1673ffffffffffffffffffffffffffffffffffffffff1663a9059cbb6000809054906101000a900473ffffffffffffffffffffffffffffffffffffffff16600160009054906101000a900473ffffffffffffffffffffffffffffffffffffffff1673ffffffffffffffffffffffffffffffffffffffff166370a08231306040518263ffffffff1660e01b8152600401808273ffffffffffffffffffffffffffffffffffffffff1673ffffffffffffffffffffffffffffffffffffffff16815260200191505060206040518083038186803b15801561066157600080fd5b505afa158015610675573d6000803e3d6000fd5b505050506040513d602081101561068b57600080fd5b81019080805190602001909291905050506040518363ffffffff1660e01b8152600401808373ffffffffffffffffffffffffffffffffffffffff1673ffffffffffffffffffffffffffffffffffffffff16815260200182815260200192505050602060405180830381600087803b15801561070557600080fd5b505af1158015610719573d6000803e3d6000fd5b505050506040513d602081101561072f57600080fd5b810190808051906020019092919050505061074957600080fd5b6000809054906101000a900473ffffffffffffffffffffffffffffffffffffffff1673ffffffffffffffffffffffffffffffffffffffff16ff5b60035481565b600160009054906101000a900473ffffffffffffffffffffffffffffffffffffffff1681565b60045481565b60025481565b6000808214806107d857508282838502925082816107d557fe5b04145b61084a576040517f08c379a00000000000000000000000000000000000000000000000000000000081526004018080602001828103825260148152602001807f64732d6d6174682d6d756c2d6f766572666c6f7700000000000000000000000081525060200191505060405180910390fd5b9291505056fea265627a7a7231582085791b21eefc21f8d1d97d0af4699c0ef515b5e6e3ce3735e9d34c61fd24cd4964736f6c63430005100032",
  "source": "pragma solidity ^0.5.16;\n\nimport \"./DappToken.sol\";\n\n/**\n * The DappTokenSale contract does this and that...\n */\ncontract DappTokenSale {\n\n\taddress payable admin;\n\tDappToken public tokenContract;\n\tuint256 public tokenPrice;\n\tuint256 public tokensSold;\n\tuint256 public tokensAvailable;\n\tbool public isEnd;\n\n\tevent Sell(\n\t\taddress _buyer,\n\t\tuint256 _amount\n\t);\n\n\tconstructor(DappToken _tokenContract, uint256 _tokenPrice) public {\n\n\t  \tadmin = msg.sender;\n\t  \ttokenContract = _tokenContract;\n\t  \ttokenPrice = _tokenPrice;\n\n  \t}\n\n  \t// Return x * y or an exception in case of uint overflow.\n  \tfunction multiply(uint x, uint y) internal pure returns(uint z) {\n  \t\trequire(y == 0 || (z = x * y) / y == x, \"ds-math-mul-overflow\");\n  \t}\n  \t\n  \t// Buy the number of tokens from this contract\n  \tfunction buyTokens(uint256 _numberOfTokens) public payable {\n\n  \t\trequire (msg.value == multiply(_numberOfTokens, tokenPrice));\n  \t\trequire (tokenContract.balanceOf(address(this)) >= _numberOfTokens);\n\n  \t\t// Transfer _numberOfTokens to sender, return true\n  \t\trequire (tokenContract.transfer(msg.sender, _numberOfTokens));\n  \t\t\t\t\n  \t\ttokensSold += _numberOfTokens;\n\n  \t\temit Sell(msg.sender, _numberOfTokens);\n  \t}\n\n  \t// Check account is admin\n  \tfunction isAdmin(address account) public view returns(bool res) {\n  \t\treturn (admin == account);\n  \t}\n  \t\n  \t// Only admin can end this contract\n  \tfunction endSale() public {\n  \t\t\n  \t\t// Admin can end sale\n  \t\trequire (msg.sender == admin);\n  \t\t// Transfer all remain tokens to admin\n  \t\trequire (tokenContract.transfer(admin, tokenContract.balanceOf(address(this))));\n\n  \t\t// End the contract and transfer ethers to admin\n  \t\tselfdestruct(admin);\n\n  \t\tisEnd = true;\n  \t}\n}\n",
  "sourcePath": "/home/minh/Desktop/Blockchain-MyOwnToken/contracts/DappTokenSale.sol",
  "compiler": {
    "name": "solc",
    "version": "0.5.16+commit.9c3226ce.Emscripten.clang"
  },
  "schemaVersion": "3.0.21",
  "updatedAt": "2020-02-15T19:14:38.408Z",
  "networkType": "ethereum",
  "devdoc": {
    "methods": {}
  },
  "userdoc": {
    "methods": {},
    "notice": "The DappTokenSale contract does this and that..."
  }
}